S0150000436F6F6C65725F53797374656D2E73726563C7
S11300000C944B000C9473000C9473000C947300C8
S11300100C9473000C9473000C94F7050C94320642
S11300200C9459060C940B060C9473000C947300F6
S11300300C9473000C9473000C9473000C94730070
S11300400C9473000C9473000C9473000C94730060
S11300500C947300610268026F0276027D028402CE
S11300608B0292029902A102A802B002B802C00255
S1130070C802D002D802E002E802EF02F702FF024F
S113008007030F0317031F0327032F0336033E033E
S113009046034E03A80511241FBECFE5D8E0DEBFFA
S11300A0CDBF10E0A0E6B0E0EEE0F1E102C00590C3
S11300B00D92A437B107D9F720E0A4E7B0E001C05E
S11300C01D92AF39B207E1F710E0CBE4D0E004C0F1
S11300D02197FE010E944A08CA34D107C9F70E9439
S11300E0C4040C9485080C940000FC01608387B15F
S11300F0806487B986B1876886B90895FC016083F6
S11301000E9475000895FC0197B180818F70892B3E
S113011087B986B1806486B9349BFECF86B180618D
S113012086B984B195B10895EF92FF920F931F930E
S1130130CF93DF93EC010E94EB008E010D5F1F4F04
S1130140C8010E94EB007E0186E0E80EF11CC701A5
S11301500E94AF0542E06EE1CE010E94520242E0ED
S11301606DE1C8010E94520200E010E028EC32E484
S113017040E050E068E472E4C7010E94BC05DF91EE
S1130180CF911F910F91FF90EF900895CF93DF933C
S1130190EC010E94ED00CE0103960E942701DF913D
S11301A0CF9108950F931F93CF93DF93EC0170E0E9
S11301B080E090E00E9426078B019C0140E050E023
S11301C068E472E4CE0106960E94BC05DF91CF91EB
S11301D01F910F91089508950895FC019081911144
S11301E00CC02BB381E090E0018002C0880F991FFE
S11301F00A94E2F7822B8BBB0895913061F428B303
S113020081E090E0018002C0880F991F0A94E2F710
S1130210822B88BB0895923061F425B381E090E08D
S1130220018002C0880F991F0A94E2F7822B85BBD4
S11302300895933059F422B381E090E0018002C024
S1130240880F991F0A94E2F7822B82BB0895FC0160
S1130250908191110DC02BB381E090E0018002C028
S1130260880F991F0A94E2F7809582238BBB089527
S1130270913069F428B381E090E0018002C0880FD6
S1130280991F0A94E2F78095822388BB08959230DF
S113029069F425B381E090E0018002C0880F991FC2
S11302A00A94E2F78095822385BB0895933061F424
S11302B022B381E090E0018002C0880F991F0A9464
S11302C0E2F78095822382BB0895FC016083418319
S11302D0613041F028F0623039F0633039F008952C
S11302E04ABB089547BB089544BB089541BB089594
S11302F0FC018081813041F028F0823039F0833074
S113030039F008956BBB089568BB089565BB0895E3
S113031062BB0895613081F008F1623061F54AB33F
S113032021E030E0B90102C0660F771F8A95E2F739
S1130330CB01842B8ABB08954AB321E030E0B90194
S113034002C0660F771F8A95E2F7CB01962F90952E
S113035094239ABB9BB3892B8BBB08954AB321E0AA
S113036030E0B90102C0660F771F8A95E2F7CB012E
S1130370809584238ABB0895613081F008F162304E
S113038061F547B321E030E0B90102C0660F771F81
S11303908A95E2F7CB01842B87BB089547B321E00C
S11303A030E0B90102C0660F771F8A95E2F7CB01EE
S11303B0962F9095942397BB98B3892B88BB089567
S11303C047B321E030E0B90102C0660F771F8A9578
S11303D0E2F7CB018095842387BB0895613081F0D7
S11303E008F1623061F544B321E030E0B90102C0A4
S11303F0660F771F8A95E2F7CB01842B84BB08959F
S113040044B321E030E0B90102C0660F771F8A953A
S1130410E2F7CB01962F9095942394BB95B3892B47
S113042085BB089544B321E030E0B90102C0660FF2
S1130430771F8A95E2F7CB018095842384BB0895C6
S1130440613081F008F1623061F541B321E030E0C0
S1130450B90102C0660F771F8A95E2F7CB01842B9E
S113046081BB089541B321E030E0B90102C0660FB9
S1130470771F8A95E2F7CB01962F9095942391BB31
S113048092B3892B82BB089541B321E030E0B901D6
S113049002C0660F771F8A95E2F7CB01809584230B
S11304A081BB08950F931F93062F10E000321105AE
S11304B008F0FBC0642FDC01F801E65DFF4F0C94EB
S11304C04A081C9211961C9280E00E948A01EDC099
S11304D01C9281E011968C930E948A01E6C01C92C2
S11304E082E011968C930E948A01DFC01C9283E003
S11304F011968C930E948A01D8C01C9284E01196B4
S11305008C930E948A01D1C01C9285E011968C9331
S11305100E948A01CAC01C9286E011968C930E94A4
S11305208A01C3C01C9287E011968C930E948A01B1
S1130530BCC081E08C9311961C9280E00E94BC01A7
S1130540B4C081E08C9311968C930E94BC01ADC021
S113055081E08C9382E011968C930E94BC01A5C02B
S113056081E08C9383E011968C930E94BC019DC022
S113057081E08C9384E011968C930E94BC0195C019
S113058081E08C9385E011968C930E94BC018DC010
S113059081E08C9386E011968C930E94BC0185C007
S11305A081E08C9387E011968C930E94BC017DC0FE
S11305B082E08C9311961C9280E00E94EE0175C03B
S11305C082E08C9381E011968C930E94EE016DC0C1
S11305D082E08C9311968C930E94EE0166C082E0B7
S11305E08C9383E011968C930E94EE015EC082E0AE
S11305F08C9384E011968C930E94EE0156C082E0A5
S11306008C9385E011968C930E94EE014EC082E09B
S11306108C9386E011968C930E94EE0146C082E092
S11306208C9387E011968C930E94EE013EC083E088
S11306308C9311961C9280E00E94200236C083E0C5
S11306408C9381E011968C930E9420022EC083E04B
S11306508C9382E011968C930E94200226C083E042
S11306608C9311968C930E9420021FC083E08C937C
S113067084E011968C930E94200217C083E08C932F
S113068085E011968C930E9420020FC083E08C9326
S113069086E011968C930E94200207C083E08C931D
S11306A087E011968C930E9420021F910F91089568
S11306B01F93CF93DF93EC01162F02960E9427011C
S11306C0CE0105960E942701612FCE010E94780178
S11306D02896CE010E94ED008FEC97E00197F1F788
S11306E000C00000CE010E942701DF91CF911F912D
S11306F00895CF93DF93EC014FEF62E00E94650110
S113070042E068E1CE0102960E94520242E069E1B1
S1130710CE0105960E94520242E06AE1CE0108969B
S11307200E9452022FEF89EF90E0215080409040C8
S1130730E1F700C0000068E3CE010E9458032AE6F6
S11307402A95F1F700C06CE0CE010E9458038AE6B6
S11307508A95F1F700C061E0CE010E9458038FE949
S11307609FE00197F1F700C0000066E0CE010E940F
S11307705803DF91CF910895CF93DF93EC010E944A
S1130780EC00CE0102960E94EB00CE0105960E9479
S1130790EB00CE0108960E94EB00CE010E94790383
S11307A0DF91CF9108951F93CF93DF93EC01162F20
S11307B002960E94ED00CE0105960E942701612F4A
S11307C0CE010E9478012896CE010E94ED008FECA4
S11307D097E00197F1F700C00000CE010E942701C5
S11307E0DF91CF911F910895EF92FF920F931F9382
S11307F0CF93DF937C01D62F8A01C0E0CD1748F454
S1130800F801EC0FF11D6081C7010E94D303CF5F93
S1130810F5CFDF91CF911F910F91FF90EF90089545
S1130820CF93DF93EC0161E00E94580362E0CE01B4
S11308300E945803DF91CF910895611108C040319F
S113084030F44F70642F60680E945803089561303B
S113085039F4403128F44F70642F606C0E945803BF
S11308600895CF93DF93EC0101960E94270118822B
S1130870DF91CF910895FF920F931F93CF93DF934E
S1130880EC01F62E8C010F5F1F4FC8010E94EB0094
S113089042E06F2DC8010E945202CE010E94310431
S11308A0DF91CF911F910F91FF900895CF93DF9324
S11308B0EC0101960E94ED0081E08883DF91CF91E5
S11308C00895019739F46F3F7F4F21F482E890E057
S11308D00E94BC03089560918D0070918E008091F8
S11308E08F00909190000E94F706DC01CB014AE052
S11308F06BE770E00E945008809160004AE064E772
S113090070E090E00E94500840E060E082E890E0EF
S11309100E941D0441E650E067E082E890E00E94F6
S1130920F4034BE750E063E082E890E00E94F403B4
S113093049E650E062E082E890E00E94F40340E07F
S113094061E082E890E00E941D044BE650E066E01E
S113095082E890E00E94F40344E750E064E082E817
S113096090E00E94F40342E750E062E082E890E005
S11309700E94F4032FEF80E792E0215080409040E2
S1130980E1F700C000000895CF93DF93CDB7DEB741
S113099066970FB6F894DEBF0FBECDBF60E0CE0100
S11309A001960E947E00CE0102960E94940062E3AA
S11309B0CE0102960E94D200CE0102960E94C60089
S11309C06AE0CE010B960E943B0469E0CE010F96CB
S11309D00E943B0468E0CE0143960E943B04CE0192
S11309E001960E9483009093960080939500BC0129
S11309F080E090E00E94260726EF38E24CE950E4BC
S1130A000E94DD076093910070939200809393009D
S1130A109093940020E030E040E251E40E94850687
S1130A206B017C0160938D0070938E0080938F0026
S1130A309093900020E030E040EA51E40E94800668
S1130A408823FCF4CE010B960E945604CE010F9627
S1130A500E943104CE0143960E94310482E38093C4
S1130A60600082E890E00E9410040E946B042FEF63
S1130A7080E792E0215080409040E1F700C0000000
S1130A80AECF20E030E040EA51E4C701B6010E9455
S1130A90D807882374F120E030E040EF51E4C70127
S1130AA0B6010E948006882324F5CE010B960E948D
S1130AB05604CE010F960E945604CE0143960E941E
S1130AC031046BE4CE0102960E94D2008BE4809341
S1130AD0600082E890E00E9410040E946B042FEFF3
S1130AE080E792E0215080409040E1F700C0000090
S1130AF076CF20E030E040EF51E4C701B6010E9418
S1130B00D80788230CF46BCFCE010B960E945604B1
S1130B10CE010F960E945604CE0143960E945604BD
S1130B2064E6CE0102960E94D20084E680936000BF
S1130B3082E890E00E9410040E946B042FEF80E78B
S1130B4092E0215080409040E1F700C0000047CF80
S1130B506FEF7FEF81E090E00E9461040895CF93EE
S1130B60DF93EC010E94EB0042E06CE1CE010E94B5
S1130B705202DF91CF910895CF92DF92EF92FF92CC
S1130B800F931F93CB01BA016801790123E22FBDB2
S1130B9022E12EBD20E030E040E851E40E94DD0770
S1130BA09B01AC0160E074E284EF9AE40E94850644
S1130BB00E94F7067BBD6ABD6AB57BB580E090E014
S1130BC00E942607A70196010E94DD0720E030E07D
S1130BD048EC52E40E9485060E94F70679BD68BD80
S1130BE01F910F91FF90EF90DF90CF9008951F9287
S1130BF00F920FB60F9211248F939F9386B597B5DA
S1130C0090939E0080939D009F918F910F900FBEB3
S1130C100F901F9018951F920F920FB60F921124E8
S1130C202F933F934F935F936F937F938F939F93F0
S1130C30AF93BF93EF93FF93E0919B00F0919C00DF
S1130C400995FF91EF91BF91AF919F918F917F9102
S1130C506F915F914F913F912F910F900FBE0F9025
S1130C601F9018951F920F920FB60F9211242F9375
S1130C703F934F935F936F937F938F939F93AF9320
S1130C80BF93EF93FF93E0919900F0919A00099537
S1130C90FF91EF91BF91AF919F918F917F916F9150
S1130CA05F914F913F912F910F900FBE0F901F9026
S1130CB018951F920F920FB60F9211242F933F9302
S1130CC04F935F936F937F938F939F93AF93BF9350
S1130CD0EF93FF93E0919700F09198000995FF91AD
S1130CE0EF91BF91AF919F918F917F916F915F91A0
S1130CF04F913F912F910F900FBE0F901F90189519
S1130D000E94630708F481E008950E9499060C94F8
S1130D109E070E94970758F00E94900740F029F41C
S1130D205F3F29F00C94870751110C94D2070C945F
S1130D308D070E94AF0768F39923B1F3552391F30C
S1130D40951B550BBB27AA2762177307840738F036
S1130D509F5F5F4F220F331F441FAA1FA9F335D093
S1130D600E2E3AF0E0E832D091505040E695001C47
S1130D70CAF72BD0FE2F29D0660F771F881FBB1F01
S1130D80261737074807AB07B0E809F0BB0B802DDF
S1130D90BF01FF2793585F4F3AF09E3F510578F00B
S1130DA00C9487070C94D2075F3FE4F3983ED4F386
S1130DB0869577956795B795F7959F5FC9F7880FDF
S1130DC0911D9695879597F90895E1E0660F771F31
S1130DD0881FBB1F621773078407BA0720F0621BC2
S1130DE0730B840BBA0BEE1F88F7E09508950E94ED
S1130DF0B70788F09F5798F0B92F9927B751B0F0EB
S1130E00E1F0660F771F881F991F1AF0BA95C9F78A
S1130E1014C0B13091F00E94D107B1E008950C9450
S1130E20D107672F782F8827B85F39F0B93FCCF303
S1130E30869577956795B395D9F73EF49095809507
S1130E40709561957F4F8F4F9F4F0895E89409C027
S1130E5097FB3EF490958095709561957F4F8F4FE9
S1130E609F4F9923A9F0F92F96E9BB279395F695FF
S1130E70879577956795B795F111F8CFFAF4BB0F7D
S1130E8011F460FF1BC06F5F7F4F8F4F9F4F16C0E1
S1130E90882311F096E911C0772321F09EE8872F6B
S1130EA0762F05C0662371F096E8862F70E060E027
S1130EB02AF09A95660F771F881FDAF7880F9695A0
S1130EC0879597F90895990F0008550FAA0BE0E844
S1130ED0FEEF16161706E807F907C0F012161306F8
S1130EE0E407F50798F0621B730B840B950B39F438
S1130EF00A2661F0232B242B252B21F408950A269E
S1130F0009F4A140A6958FEF811D811D089597F9DD
S1130F109F6780E870E060E008959FEF80EC08959B
S1130F2000240A94161617061806090608950024C4
S1130F300A9412161306140605060895092E03943E
S1130F40000C11F4882352F0BB0F40F4BF2B11F4B2
S1130F5060FF04C06F5F7F4F8F4F9F4F089557FD11
S1130F609058440F551F59F05F3F71F04795880F13
S1130F7097FB991F61F09F3F79F0879508951216AA
S1130F8013061406551FF2CF4695F1DF08C0161656
S1130F9017061806991FF1CF869571056105089407
S1130FA00895E894BB2766277727CB0197F908951E
S1130FB00E94630708F48FEF08950E94F0070C94D1
S1130FC09E070E94900738F00E94970720F095230F
S1130FD011F00C9487070C948D0711240C94D207FC
S1130FE00E94AF0770F3959FC1F3950F50E0551F12
S1130FF0629FF001729FBB27F00DB11D639FAA276A
S1131000F00DB11DAA1F649F6627B00DA11D661FB8
S1131010829F2227B00DA11D621F739FB00DA11DD9
S1131020621F839FA00D611D221F749F3327A00D93
S1131030611D231F849F600D211D822F762F6A2F2F
S113104011249F5750409AF0F1F088234AF0EE0F94
S1131050FF1FBB1F661F771F881F91505040A9F7C1
S11310609E3F510580F00C9487070C94D2075F3F94
S1131070E4F3983ED4F3869577956795B795F795FD
S1131080E7959F5FC1F7FE2B880F911D9695879575
S113109097F90895EE0FFF1F0590F491E02D099440
S11310A0BB274A3031F4992322F4BDE2909581950F
S11310B09F4F0C945C08BB27FB015527AA27880F78
S11310C0991FAA1FA41710F0A41B83955051B9F7B8
S11310D0A05DAA3308F0A95DA193009779F7B11137
S11310E0B1931192CB010C947508DC01FC01672FBC
S11310F071917723E1F7329704C07C916D937083EB
S11111006291AE17BF07C8F30895F894FFCFAD
S113110E3254656D70203D2000430046616E203DD3
S107111E2000250084
S9030000FC
